HX1V03G          00000000008012845648420231103                                 
HXH5047486104BR19840303C2023000HCPP                                            
HXTV409A  0055000420231028972                                   A3H            
HXH4824134616BW20060314C2023000HCPP                             VH1            
HXTV404A  0051000520231028367                                                  
HXH2367246010AK20081218C2023000HCPP                                            
HXTV404A  0051000620231028368                                   A3H            
HXH2367246010AK20081218C2023000HCPP                                            
HXTV412A  0025000720231028368                                   A3H            
HX90000004000000000000040000000                                                
