HX1V03G          00000000008012845648420231114                                 
HXH8159647182WK1961010111100006HCPP                                            
HXTV451A  0048000120231111367                                   EPP            
HXH6561098861AH1957020211100008HCPP                                            
HXTV451A  0048000120231111367                                   A2A            
HXH3847443342KB2014081411100010HCPP                                            
HXTV402A  0025150120231111367                                   EH2            
HX90000003000000000000030000000                                                
