HX1V03G          00000000008012845648420231211                                 
HXH5046677851EY2006122311100035HCPP                                            
HXTV450A  0048000120231209367                                   A2A            
HX90000001000000000000010000000                                                
